:020000040000FA
:0604C000F8EF3DF0120010
:0A04C6000A00A27C00007B01000088
:1004D000060000009C7C0000F80000000600000000
:1004E000987C00008101000004000000957C000061
:1004F0008E010000030000008B7C000071010000F1
:100500000A000000797C0000E600000012000000F4
:10051000777C000091010000020000006D7C00006B
:10052000670100000A0000005C7C00004001000040
:1005300011000000367C0000C00000002600000012
:10054000D9CFE6FFE1CFD9FF020EE126FD0EDBCFCA
:1005500015F1FE0EDBCF16F101011F6B46EC2DF0FD
:10056000B5EC30F041EC2DF0000910E1FD0EDBCFD1
:10057000E6FFFE0EDBCFE6FF020EE66EE66ADCEC7F
:1005800030F0E552E552E552E55204D00101422B2C
:10059000000E432379EC2DF0020EE15C02E2E16AE9
:1005A000E552E16EE552E7CFD9FF1200D9CFE6FF61
:1005B000E1CFD9FF020EE126FD0EDBCF15F1FE0ED5
:1005C000DBCF16F101011F6B609E0F01509F46ECBF
:1005D0002DF0B5EC30F041EC2DF0000912E00101F6
:1005E0001F6BFD0EDBCFE6FFFE0EDBCFE6FF010E3D
:1005F000E66EE66ADCEC30F0E552E552E552E55293
:1006000004D00101422B000E432379EC2DF0020EA1
:10061000E15C02E2E16AE552E16EE552E7CFD9FF23
:10062000120056EC2CF0400EE66E2AEC2CF0E5524F
:10063000B5EC30F0200EE66EE66A82DFE552E55258
:10064000220EE66EE66A7CDFE552E552200EE66E8B
:10065000010EE66EABDFE552E552600EE66EE66A2D
:10066000A5DFE552E552300EE66EE66A9FDFE55201
:10067000E552800EE66E020EE66E62DFE552E5524E
:10068000820EE66E020EE66E5BDFE552E552800EEC
:10069000E66E030EE66E8ADFE552E552E66A020E6A
:1006A000E66E84DFE552E552A00EE66E020EE66EBF
:1006B0007DDFE552E552900EE66E020EE66E76DFC5
:1006C000E552E552EA0EE66E060EE66E39DFE552B9
:1006D000E552EA0EE66E070EE66E68DFE552E55279
:1006E0006A0EE66E060EE66E61DFE552E552AA0E70
:1006F000E66E060EE66E5ADFE552E552C20EE66E73
:10070000060EE66E53DFE552E552EE0EE66E060E7D
:10071000E66E4CDFE552E552E80EE66E060EE66E3A
:1007200045DFE552E5521200D9CFE6FFE1CFD9FF10
:10073000020EE126100EDE6E270EDD6EDFCF14F006
:10074000DF06010EDBCF15F001E2DB0614501510B9
:100750000AE0000000000000000041EC2DF000095C
:1007600001E002D0EBD700D0020EE15C02E2E16AC8
:10077000E552E16EE552E7CFD9FF1200D9CFE6FF8F
:10078000E1CFD9FFFD0EDBCF15F1FE0EDBCF16F169
:1007900001011F6B46EC2DF0C7DFF2EC2FF0E552A4
:1007A000E7CFD9FF1200D9CFE6FFE1CFD9FFFD0E89
:1007B000DBCF15F1FE0EDBCF16F10101040E1F6F2A
:1007C000FB0EDBCF17F1FC0EDBCF18F1F90EDBCF00
:1007D00019F1FA0EDBCF1AF146EC2DF0A5DFF2ECA1
:1007E0002FF0E552E7CFD9FF1200D9CFE6FFE1CFD6
:1007F000D9FFFD0EDBCF15F1FE0EDBCF16F10101A7
:10080000080E1F6FFB0EDBCF17F1FC0EDBCF18F1CC
:10081000F90EDBCF19F1FA0EDBCF1AF1F70EDBCFB1
:100820001BF1F80EDBCF1CF1F50EDBCF1DF1F60E40
:10083000DBCF1EF146EC2DF077DFF2EC2FF0E55226
:10084000E7CFD9FF12000401340E006F120E016FC2
:10085000450E026F230E036F560E046F340E056FA4
:10086000670E066F450E076F780E086F560E096FFC
:10087000890E0A6F670E0B6F9A0E0C6F780E0D6F54
:1008800044EC35F00101448D000EE66EE66AE66E3A
:10089000E66AE66EE66AE66EE66A070EE66E0C0E3D
:1008A00001014115E66E010EE66E1DEC30F0E552D9
:1008B000E552E552F3CF14F0F4CF15F0F3CFE6FF95
:1008C000F4CFE6FF92DF166E0A0EE15E16500101CC
:1008D0002E512F1105E10101422B000E43230CD0B4
:1008E000000EE66EE66A030EE66EE66ADCEC30F0B9
:1008F000E552E552E552E55201014451400B05E154
:100900000101422B000E43230CD0000EE66EE66A76
:10091000030EE66EE66ADCEC30F0E552E552E55295
:10092000E5520101448D120EE66EE66A000EE66E97
:10093000E66AE66EE66AE66EE66A070EE66E0C0E9C
:1009400001014115E66E010EE66E1DEC30F0E55238
:10095000E552E552F3CF14F0F4CF15F0F3CFE6FFF4
:10096000F4CFE6FF42DF166E0A0EE15E165001017B
:10097000120E2E1907E12F5105E10101422B000E45
:1009800043230CD0120EE66EE66A030EE66EE66AAC
:10099000DCEC30F0E552E552E552E55201014451FC
:1009A000400B05E10101422B000E43230CD0120E37
:1009B000E66EE66A030EE66EE66ADCEC30F0E552BF
:1009C000E552E552E5520101448DE668030EE66EFC
:1009D000000EE66EE66AE66EE66AE66EE66A070E08
:1009E000E66E0C0E01014115E66E010EE66E1DEC81
:1009F00030F0E552E552E552F3CF14F0F4CF15F0A4
:100A0000F3CFE6FFF4CFE6FFF0DE166E0A0EE15EEE
:100A10001650FF0E01012E1908E1030E2F1905E1F2
:100A20000101422B000E43230BD0E668030EE66E55
:100A3000E66EE66ADCEC30F0E552E552E552E5524E
:100A400001014451400B05E10101422B000E4323FB
:100A50000BD0E668030EE66EE66EE66ADCEC30F07C
:100A6000E552E552E552E5520101449DF40EE66E71
:100A7000E668000EE66EE66AE66EE66AE66EE66A2E
:100A8000070EE66E0C0E01014115E66E010EE66ED4
:100A90001DEC30F0E552E552E552F3CF14F0F4CFFF
:100AA00015F0F3CFE6FFF4CFE6FF9FDE166E0A0ED9
:100AB000E15E1650F40E01012E1902E1FF0E2F190E
:100AC00005E00101422B000E43230CD0F40EE66E2C
:100AD000E668030EE66EE66ADCEC30F0E552E552BD
:100AE000E552E55201014451400B05E00101422B62
:100AF000000E43230CD0F40EE66EE668030EE66E9D
:100B0000E66ADCEC30F0E552E552E552E5520101CF
:100B1000449DE66A040EE66E000EE66EE66AE66E38
:100B2000E66AE66EE66A070EE66E0C0E01014115F6
:100B3000E66E010EE66E1DEC30F0E552E552E55230
:100B4000F3CF14F0F4CF15F0F3CFE6FFF4CFE6FFC8
:100B50004CDE166E0A0EE15E165001012E5102E1C6
:100B6000040E2F1905E00101422B000E43230CD087
:100B7000E66A040EE66E030EE66EE66ADCEC30F022
:100B8000E552E552E552E55201014451400B05E0C2
:100B90000101422B000E43230CD0E66A040EE66EE0
:100BA000030EE66EE66ADCEC30F0E552E552E55203
:100BB000E5520101448D000EE66EE66AE66EE66AD5
:100BC000E66EE66AE66EE66A080EE66E0C0E010157
:100BD0004115E66E010EE66E1DEC30F0E552E55271
:100BE000E552F3CF14F0F4CF15F0F3CFE6FFF4CFD6
:100BF000E6FFFBDD166E0A0EE15E16500101305174
:100C0000311105E10101422B000E43230CD0000EEF
:100C1000E66EE66A040EE66EE66ADCEC30F0E5525B
:100C2000E552E552E55201014451400B05E1010155
:100C3000422B000E43230CD0000EE66EE66A040E33
:100C4000E66EE66ADCEC30F0E552E552E552E5523C
:100C50000101448D120EE66E160EE66E000EE66E73
:100C6000E66AE66EE66AE66EE66A080EE66E0C0E68
:100C700001014115E66E010EE66E1DEC30F0E55205
:100C8000E552E552F3CF14F0F4CF15F0F3CFE6FFC1
:100C9000F4CFE6FFAADD166E0A0EE15E1650120EC4
:100CA0000101301908E1160E311905E10101422B4D
:100CB000000E43230DD0120EE66E160EE66E040EE5
:100CC000E66EE66ADCEC30F0E552E552E552E552BC
:100CD00001014451400B05E10101422B000E432369
:100CE0000DD0120EE66E160EE66E040EE66EE66A85
:100CF000DCEC30F0E552E552E552E5520101448D5D
:100D0000E668E668000EE66EE66AE66EE66AE66E9D
:100D1000E66A080EE66E0C0E01014115E66E010E44
:100D2000E66E1DEC30F0E552E552E552F3CF14F0DB
:100D3000F4CF15F0F3CFE6FFF4CFE6FF56DD166EE5
:100D40000A0EE15E16500101301D07E1311D05E17B
:100D50000101422B000E43230BD0E668E668040E27
:100D6000E66EE66ADCEC30F0E552E552E552E5521B
:100D700001014451400B05E10101422B000E4323C8
:100D80000BD0E668E668040EE66EE66ADCEC30F04E
:100D9000E552E552E552E5520101448D000EE66E42
:100DA000E66AE66EE66AE66EE66AE66EE66A090EF0
:100DB000E66E0C0E01014115E66E010EE66E1DECAD
:100DC00030F0E552E552E552F3CF14F0F4CF15F0D0
:100DD000F3CFE6FFF4CFE6FF08DD166E0A0EE15E04
:100DE000165001013251331105E10101422B000E71
:100DF00043230CD0000EE66EE66A050EE66EE66A48
:100E0000DCEC30F0E552E552E552E5520101445187
:100E1000400B05E10101422B000E43230CD0000ED4
:100E2000E66EE66A050EE66EE66ADCEC30F0E55248
:100E3000E552E552E5520101448DE6687F0EE66E0B
:100E4000000EE66EE66AE66EE66AE66EE66A090E91
:100E5000E66E0C0E01014115E66E010EE66E1DEC0C
:100E600030F0E552E552E552F3CF14F0F4CF15F02F
:100E7000F3CFE6FFF4CFE6FFB8DC166E0A0EE15EB4
:100E80001650FF0E0101321908E17F0E331905E1FA
:100E90000101422B000E43230CD0E6687F0EE66E64
:100EA000050EE66EE66ADCEC30F0E552E552E552FE
:100EB000E55201014451400B05E10101422B000EB6
:100EC00043230CD0E6687F0EE66E050EE66EE66AFA
:100ED000DCEC30F0E552E552E552E5520101449D6B
:100EE000E66A800EE66E000EE66EE66AE66EE66A7A
:100EF000E66EE66A090EE66E0C0E01014115E66E1D
:100F0000010EE66E1DEC30F0E552E552E552F3CFEE
:100F100014F0F4CF15F0F3CFE6FFF4CFE6FF65DC75
:100F2000166E0A0EE15E16500101325102E1800E8A
:100F3000331905E00101422B000E43230CD0E66A71
:100F4000800EE66E050EE66EE66ADCEC30F0E552E9
:100F5000E552E552E55201014451400B05E0010123
:100F6000422B000E43230CD0E66A800EE66E050E7F
:100F7000E66EE66ADCEC30F0E552E552E552E55209
:100F80000101448D000EE66EE66AE66EE66AE66EE4
:100F9000E66AE66EE66A0A0EE66E0C0E010141157F
:100FA000E66E010EE66E1DEC30F0E552E552E552BC
:100FB000F3CF14F0F4CF15F0F3CFE6FFF4CFE6FF54
:100FC00014DC166E0A0EE15E165001013451351123
:100FD00005E10101422B000E43230CD0000EE66E0A
:100FE000E66A060EE66EE66ADCEC30F0E552E552A3
:100FF000E552E55201014451400B05E10101422B4C
:10100000000E43230CD0000EE66EE66A060EE66E76
:10101000E66ADCEC30F0E552E552E552E5520101BA
:10102000448DE6687F0EE66E000EE66EE66AE66EBA
:10103000E66AE66EE66A0A0EE66E0C0E01014115DE
:10104000E66E010EE66E1DEC30F0E552E552E5521B
:10105000F3CF14F0F4CF15F0F3CFE6FFF4CFE6FFB3
:10106000F5EC03F0166E0A0EE15E1650FF0E01015C
:10107000341908E17F0E351905E10101422B000EFC
:1010800043230CD0E6687F0EE66E060EE66EE66A37
:10109000DCEC30F0E552E552E552E55201014451F5
:1010A000400B05E10101422B000E43230CD0E66802
:1010B0007F0EE66E060EE66EE66ADCEC30F0E55278
:1010C000E552E552E5520101449DE66A800EE66E66
:1010D000000EE66EE66AE66EE66AE66EE66A0A0EFE
:1010E000E66E0C0E01014115E66E010EE66E1DEC7A
:1010F00030F0E552E552E552F3CF14F0F4CF15F09D
:10110000F3CFE6FFF4CFE6FFF5EC03F0166E0A0E20
:10111000E15E16500101345102E1800E351905E0FF
:101120000101422B000E43230CD0E66A800EE66ECE
:10113000060EE66EE66ADCEC30F0E552E552E5526A
:10114000E55201014451400B05E00101422B000E24
:1011500043230CD0E66A800EE66E060EE66EE66A63
:10116000DCEC30F0E552E552E552E5520101448DE8
:10117000000EE66EE66AE66EE66AE66EE66AE66E21
:10118000E66A0B0EE66E0C0E01014115E66E010ECD
:10119000E66E1DEC30F0E552E552E552F3CF14F067
:1011A000F4CF15F0F3CFE6FFF4CFE6FFF5EC03F054
:1011B000166E0A0EE15E165001013651371105E137
:1011C0000101422B000E43230CD0000EE66EE66AAE
:1011D000070EE66EE66ADCEC30F0E552E552E552C9
:1011E000E55201014451400B05E10101422B000E83
:1011F00043230CD0000EE66EE66A070EE66EE66A42
:10120000DCEC30F0E552E552E552E5520101448D47
:10121000E6687F0EE66E000EE66EE66AE66EE66A49
:10122000E66EE66A0B0EE66E0C0E01014115E66EE7
:10123000010EE66E1DEC30F0E552E552E552F3CFBB
:1012400014F0F4CF15F0F3CFE6FFF4CFE6FFF5ECA2
:1012500003F0166E0A0EE15E1650FF0E01013619FC
:1012600008E17F0E371905E10101422B000E4323EF
:101270000CD0E6687F0EE66E070EE66EE66ADCECE2
:1012800030F0E552E552E552E55201014451400B80
:1012900005E10101422B000E43230CD0E6687F0ECE
:1012A000E66E070EE66EE66ADCEC30F0E552E552DB
:1012B000E552E5520101449DE66A800EE66E000E9D
:1012C000E66EE66AE66EE66AE66EE66A0B0EE66EC5
:1012D0000C0E01014115E66E010EE66E1DEC30F0BC
:1012E000E552E552E552F3CF14F0F4CF15F0F3CF09
:1012F000E6FFF4CFE6FFF5EC03F0166E0A0EE15EB2
:1013000016500101365102E1800E371905E0010146
:10131000422B000E43230CD0E66A800EE66E070EC9
:10132000E66EE66ADCEC30F0E552E552E552E55255
:1013300001014451400B05E00101422B000E432303
:101340000CD0E66A800EE66E070EE66EE66ADCEC0E
:1013500030F0E552E552E552E5520101448D000EB0
:10136000E66EE66AE66EE66AE66EE66AE66EE66AED
:101370000C0EE66E01014115E66E010EE66E1DECE7
:1013800030F0E552E552E552F3CF14F0F4CF15F00A
:10139000F3CFE6FFF4CFE6FFF5EC03F0166E0A0E8E
:1013A000E15E165001013851391105E10101422B6E
:1013B000000E43230CD0000EE66EE66A080EE66EC1
:1013C000E66ADCEC30F0E552E552E552E552010107
:1013D0004451400B05E10101422B000E43230CD088
:1013E000000EE66EE66A080EE66EE66ADCEC30F0A9
:1013F000E552E552E552E5520101448DE6687F0E63
:10140000E66E000EE66EE66AE66EE66AE66EE66A8E
:101410000C0EE66E01014115E66E010EE66E1DEC46
:1014200030F0E552E552E552F3CF14F0F4CF15F069
:10143000F3CFE6FFF4CFE6FFF5EC03F0166E0A0EED
:10144000E15E1650FF0E0101381908E17F0E3919CF
:1014500005E10101422B000E43230CD0E6687F0E0C
:10146000E66E080EE66EE66ADCEC30F0E552E55218
:10147000E552E55201014451400B05E10101422BC7
:10148000000E43230CD0E6687F0EE66E080EE66E73
:10149000E66ADCEC30F0E552E552E552E552010136
:1014A000449DE66A800EE66E000EE66EE66AE66E23
:1014B000E66AE66EE66A0C0EE66E01014115E66E1E
:1014C000010EE66E1DEC30F0E552E552E552F3CF29
:1014D00014F0F4CF15F0F3CFE6FFF4CFE6FFF5EC10
:1014E00003F0166E0A0EE15E16500101385102E15A
:1014F000800E391905E00101422B000E43230CD068
:10150000E66A800EE66E080EE66EE66ADCEC30F007
:10151000E552E552E552E55201014451400B05E028
:101520000101422B000E43230CD0E66A800EE66ECA
:10153000080EE66EE66ADCEC30F0E552E552E55264
:10154000E5520101448D000EE66EE66AE66EE66A3B
:10155000E66EE66AE66EE66A0D0EE66E0C0E0101B8
:101560004115E66E010EE66E1DEC30F0E552E552D7
:10157000E552F3CF14F0F4CF15F0F3CFE6FFF4CF3C
:10158000E6FFF5EC03F0166E0A0EE15E165001015F
:101590003A513B1105E10101422B000E43230CD0CF
:1015A000000EE66EE66A090EE66EE66ADCEC30F0E6
:1015B000E552E552E552E55201014451400B05E187
:1015C0000101422B000E43230CD0000EE66EE66AAA
:1015D000090EE66EE66ADCEC30F0E552E552E552C3
:1015E000E5520101448DE6683F0EE66E000EE66EA0
:1015F000E66AE66EE66AE66EE66A0D0EE66E0C0ECA
:1016000001014115E66E010EE66E1DEC30F0E5526B
:10161000E552E552F3CF14F0F4CF15F0F3CFE6FF27
:10162000F4CFE6FFF5EC03F0166E0A0EE15E1650FD
:10163000FF0E01013A1908E13F0E3B1905E10101D6
:10164000422B000E43230CD0E6683F0EE66E090ED7
:10165000E66EE66ADCEC30F0E552E552E552E55222
:1016600001014451400B05E10101422B000E4323CF
:101670000CD0E6683F0EE66E090EE66EE66ADCEC1C
:1016800030F0E552E552E552E5520101449DE66A2B
:10169000400EE66E000EE66EE66AE66EE66AE66EFE
:1016A000E66A0D0EE66E0C0E01014115E66E010EA6
:1016B000E66E1DEC30F0E552E552E552F3CF14F042
:1016C000F4CF15F0F3CFE6FFF4CFE6FFF5EC03F02F
:1016D000166E0A0EE15E165001013A5102E1400E0B
:1016E0003B1905E00101422B000E43230CD0E66AB2
:1016F000400EE66E090EE66EE66ADCEC30F0E5526E
:10170000E552E552E55201014451400B05E001016B
:10171000422B000E43230CD0E66A400EE66E090E03
:10172000E66EE66ADCEC30F0E552E552E552E55251
:101730000101448D000EE66EE66AE66EE66AE66E2C
:10174000E66AE66EE66A0E0EE66E0C0E01014115C3
:10175000E66E010EE66E1DEC30F0E552E552E55204
:10176000F3CF14F0F4CF15F0F3CFE6FFF4CFE6FF9C
:10177000F5EC03F0166E0A0EE15E165001013C51C5
:101780003D1105E10101422B000E43230CD0000E58
:10179000E66EE66A0A0EE66EE66ADCEC30F0E552CA
:1017A000E552E552E55201014451400B05E10101CA
:1017B000422B000E43230CD0000EE66EE66A0A0EA2
:1017C000E66EE66ADCEC30F0E552E552E552E552B1
:1017D0000101448D010EE66EE66A000EE66EE66AD1
:1017E000E66EE66AE66EE66A0E0EE66E0C0E010125
:1017F0004115E66E010EE66E1DEC30F0E552E55245
:10180000E552F3CF14F0F4CF15F0F3CFE6FFF4CFA9
:10181000E6FFF5EC03F0166E0A0EE15E16500101CC
:10182000010E3C1907E13D5105E10101422B000E7B
:1018300043230CD0010EE66EE66A0A0EE66EE66AF7
:10184000DCEC30F0E552E552E552E552010144513D
:10185000400B05E10101422B000E43230CD0010E89
:10186000E66EE66A0A0EE66EE66ADCEC30F0E552F9
:10187000E552E552E5520101448DE66AE668000E44
:10188000E66EE66AE66EE66AE66EE66A0E0EE66EFC
:101890000C0E01014115E66E010EE66E1DEC30F0F6
:1018A000E552E552E552F3CF14F0F4CF15F0F3CF43
:1018B000E6FFF4CFE6FFF5EC03F0166E0A0EE15EEC
:1018C000165001013C5108E1FF0E3D1905E10101EF
:1018D000422B000E43230BD0E66AE6680A0EE66E42
:1018E000E66ADCEC30F0E552E552E552E5520101E2
:1018F0004451400B05E10101422B000E43230BD064
:10190000E66AE6680A0EE66EE66ADCEC30F0E5525E
:10191000E552E552E5520101449D020EE66EE66A8B
:10192000000EE66EE66AE66EE66AE66EE66A0E0EA1
:10193000E66E0C0E01014115E66E010EE66E1DEC21
:1019400030F0E552E552E552F3CF14F0F4CF15F044
:10195000F3CFE6FFF4CFE6FFF5EC03F0166E0A0EC8
:10196000E15E16500101020E3C1901E13D5105E016
:101970000101422B000E43230CD0020EE66EE66AF4
:101980000A0EE66EE66ADCEC30F0E552E552E5520E
:10199000E55201014451400B05E00101422B000ECC
:1019A00043230CD0020EE66EE66A0A0EE66EE66A85
:1019B000DCEC30F0E552E552E552E5520101010E52
:1019C000806F0001AD0EFC6FDE0EFD6F0001AD0EED
:1019D000C06FDE0EC16F0001AD0EC26FDE0EC36FB1
:1019E0000001AD0EC46FDE0EC56F0001AD0EC66FF7
:1019F000DE0EC76F0001AD0EC86FDE0EC96F0001AD
:101A0000AD0ECA6FDE0ECB6F0001AD0ECC6F0001C4
:101A1000CD6F010EE66EE66A000EE66EE66AE66ED1
:101A2000E66AE66EE66A070EE66E0C0E01014115E7
:101A3000E66E010EE66E1DEC30F0E552E552E55221
:101A4000F3CF14F0F4CF15F0F3CFE6FFF4CFE6FFB9
:101A5000F5EC03F0166E0A0EE15E1650020EE66E0D
:101A6000E66A000EE66EE66AE66EE66AE66EE66A2C
:101A7000080EE66E0C0E01014115E66E010EE66ED3
:101A80001DEC30F0E552E552E552F3CF14F0F4CFFF
:101A900015F0F3CFE6FFF4CFE6FFF5EC03F0166E9A
:101AA0000A0EE15E1650030EE66EE66A000EE66E62
:101AB000E66AE66EE66AE66EE66A090EE66E0C0E09
:101AC00001014115E66E010EE66E1DEC30F0E552A7
:101AD000E552E552F3CF14F0F4CF15F0F3CFE6FF63
:101AE000F4CFE6FFF5EC03F0166E0A0EE15E165039
:101AF000040EE66EE66A000EE66EE66AE66EE66ADA
:101B0000E66EE66A0A0EE66E0C0E01014115E66EFF
:101B1000010EE66E1DEC30F0E552E552E552F3CFD2
:101B200014F0F4CF15F0F3CFE6FFF4CFE6FFF5ECB9
:101B300003F0166E0A0EE15E1650050EE66EE66ABA
:101B4000000EE66EE66AE66EE66AE66EE66A0B0E82
:101B5000E66E0C0E01014115E66E010EE66E1DECFF
:101B600030F0E552E552E552F3CF14F0F4CF15F022
:101B7000F3CFE6FFF4CFE6FFF5EC03F0166E0A0EA6
:101B8000E15E1650060EE66EE66A000EE66EE66A46
:101B9000E66EE66AE66EE66A0C0EE66E0101411537
:101BA000E66E010EE66E1DEC30F0E552E552E552B0
:101BB000F3CF14F0F4CF15F0F3CFE6FFF4CFE6FF48
:101BC000F5EC03F0166E0A0EE15E1650070EE66E97
:101BD000E66A000EE66EE66AE66EE66AE66EE66ABB
:101BE0000D0EE66E0C0E01014115E66E010EE66E5D
:101BF0001DEC30F0E552E552E552F3CF14F0F4CF8E
:101C000015F0F3CFE6FFF4CFE6FFF5EC03F0166E28
:101C10000A0EE15E1650000EE66EE66AE66EE66AB1
:101C2000E66EE66AE66EE66A0E0EE66E0C0E0101E0
:101C30004115E66E010EE66E1DEC30F0E552E55200
:101C4000E552F3CF14F0F4CF15F0F3CFE6FFF4CF65
:101C5000E6FFF5EC03F0166E0A0EE15E1650210E5B
:101C6000E66E430EE66E000EE66EE66AE66EE66A25
:101C7000E66EE66A0F0EE66E0C0E01014115E66E89
:101C8000010EE66E1DEC30F0E552E552E552F3CF61
:101C900014F0F4CF15F0F3CFE6FFF4CFE6FFF5EC48
:101CA00003F0166E0A0EE15E16500001010EFC19DB
:101CB0000EE1FD510CE1010EE66EE66A0B0EE66EDA
:101CC000E66ADCEC30F0E552E552E552E5520001FF
:101CD000030EC0190EE1C1510CE1030EE66EE66A77
:101CE0000B0EE66EE66ADCEC30F0E552E552E552AA
:101CF000E5520001040EC2190EE1C3510CE1040EBD
:101D0000E66EE66A0B0EE66EE66ADCEC30F0E55253
:101D1000E552E552E5520001050EC4190EE1C55128
:101D20000CE1050EE66EE66A0B0EE66EE66ADCEC8A
:101D300030F0E552E552E552E5520001060EC619B3
:101D40000EE1C7510CE1060EE66EE66A0B0EE66E7A
:101D5000E66ADCEC30F0E552E552E552E55200016E
:101D6000070EC8190EE1C9510CE1070EE66EE66ACE
:101D70000B0EE66EE66ADCEC30F0E552E552E55219
:101D8000E552F90E0001CA190FE1FF0ECB190CE163
:101D9000080EE66EE66A0B0EE66EE66ADCEC30F0E4
:101DA000E552E552E552E5520001CC510CE1090E35
:101DB000E66EE66A0B0EE66EE66ADCEC30F0E552A3
:101DC000E552E552E5520001CD510CE10A0EE66EF6
:101DD000E66A0B0EE66EE66ADCEC30F0E552E552A0
:101DE000E552E55201014451200B0BE10B0EE66E6A
:101DF000E66AE66EE66ADCEC30F0E552E552E55262
:101E0000E552850EE66E100EE66E000EE66EE66A90
:101E1000E66EE66AE66EE66A0F0EE66E0C0E0101ED
:101E20004115E66E010EE66E1DEC30F0E552E5520E
:101E3000E552F3CF14F0F4CF15F0F3CFE6FFF4CF73
:101E4000E6FFF5EC03F0166E0A0EE15E1650000197
:101E5000010EFC1901E1FD510BE00B0EE66EE66A86
:101E6000E66EE66ADCEC30F0E552E552E552E5520A
:101E70000001030EC01901E1C1510CE00D0EE66E28
:101E8000E66A0B0EE66EE66ADCEC30F0E552E552EF
:101E9000E552E5520001040EC21901E1C3510CE004
:101EA0000E0EE66EE66A0B0EE66EE66ADCEC30F0CD
:101EB000E552E552E552E5520001050EC41901E173
:101EC000C5510CE00F0EE66EE66A0B0EE66EE66A92
:101ED000DCEC30F0E552E552E552E5520001060E29
:101EE000C61901E1C7510CE0100EE66EE66A0B0E52
:101EF000E66EE66ADCEC30F0E552E552E552E5527A
:101F00000001070EC81901E1C9510CE0110EE66E7F
:101F1000E66A0B0EE66EE66ADCEC30F0E552E5525E
:101F2000E552E552F90E0001CA1902E1FF0ECB1984
:101F30000CE0120EE66EE66A0B0EE66EE66ADCEC6C
:101F400030F0E552E552E552E5520001CC510CE08B
:101F5000130EE66EE66A0B0EE66EE66ADCEC30F017
:101F6000E552E552E552E5520001CD510CE0140E68
:101F7000E66EE66A0B0EE66EE66ADCEC30F0E552E1
:101F8000E552E552E55201014451200B0BE00B0EE6
:101F9000E66EE66AE66EE66ADCEC30F0E552E552A3
:101FA000E552E55244EF35F0D9CFE6FFE1CFD9FF56
:101FB000020EE126400EE66E2AEC2CF0E5520101FD
:101FC000010E466F0001F86BF96B0001FC69030E0E
:101FD000FD6F0101476B190E486F0101716B320EE5
:101FE000726FE668010EE66E000EE66EE66AE66E59
:101FF000E66AE66EE66A020EE66E0C0E0101411517
:10200000E66E010EE66E1DEC30F0E552E552E5524B
:10201000F3CF14F0F4CF15F0F3CFE6FFF4CFE6FFE3
:10202000F5EC03F0166E0A0EE15E16508EEC3BF0F6
:10203000FF0E0001FA1902E1010EFB190CE0E6683F
:10204000010EE66E0C0EE66EE66ADCEC30F0E55250
:10205000E552E552E5520CEC3BF001080CE0E66875
:10206000010EE66E0C0EE66EE66ADCEC30F0E55230
:10207000E552E552E552000EE66EE66AE66EE66A65
:10208000E66EE66AE66EE66A020EE66E0C0E010188
:102090004115E66E010EE66E1DEC30F0E552E5529C
:1020A000E552F3CF14F0F4CF15F0F3CFE6FFF4CF01
:1020B000E6FFF5EC03F0166E0A0EE15E16508EECAC
:1020C0003BF00001FA51FB110CE0000EE66EE66AEF
:1020D0000C0EE66EE66ADCEC30F0E552E552E552B5
:1020E000E5520CEC3BF001080CE0000EE66EE66AEF
:1020F0000C0EE66EE66ADCEC30F0E552E552E55295
:10210000E552010EE66EFE0EE66E000EE66EE66A23
:10211000E66EE66AE66EE66A020EE66E0C0E0101F7
:102120004115E66E010EE66E1DEC30F0E552E5520B
:10213000E552F3CF14F0F4CF15F0F3CFE6FFF4CF70
:10214000E6FFF5EC03F0166E0A0EE15E16508EEC1B
:102150003BF0010E0001FA1902E1FE0EFB190DE041
:10216000010EE66EFE0EE66E0C0EE66EE66ADCEC26
:1021700030F0E552E552E552E5520CEC3BF0020836
:102180000DE0010EE66EFE0EE66E0C0EE66EE66AE1
:10219000DCEC30F0E552E552E552E552010EE66E18
:1021A000040EE66E000EE66EE66AE66EE66AE66E1F
:1021B000E66A020EE66E0C0E01014115E66E010E96
:1021C000E66E1DEC30F0E552E552E552F3CF14F027
:1021D000F4CF15F0F3CFE6FFF4CFE6FFF5EC03F014
:1021E000166E0A0EE15E16508EEC3BF0FF0E0001FB
:1021F000FA1902E1030EFB190DE0010EE66E040E62
:10220000E66E0C0EE66EE66ADCEC30F0E552E55266
:10221000E552E5520CEC3BF001080DE0010EE66ED4
:10222000040EE66E0C0EE66EE66ADCEC30F0E5526B
:10223000E552E552E552E668FB0EE66E000EE66EEC
:10224000E66AE66EE66AE66EE66A020EE66E0C0E78
:1022500001014115E66E010EE66E1DEC30F0E5520F
:10226000E552E552F3CF14F0F4CF15F0F3CFE6FFCB
:10227000F4CFE6FFF5EC03F0166E0A0EE15E1650A1
:102280008EEC3BF0010E0001FA1902E1FC0EFB1985
:102290000CE0E668FB0EE66E0C0EE66EE66ADCEC21
:1022A00030F0E552E552E552E5520CEC3BF0020805
:1022B0000CE0E668FB0EE66E0C0EE66EE66ADCEC01
:1022C00030F0E552E552E552E552E6687F0EE66EE3
:1022D000000EE66EE66AE66EE66AE66EE66A020EF4
:1022E000E66E0C0E01014115E66E010EE66E1DEC68
:1022F00030F0E552E552E552F3CF14F0F4CF15F08B
:10230000F3CFE6FFF4CFE6FFF5EC03F0166E0A0E0E
:10231000E15E16508EEC3BF0FF0E0001FA1902E16F
:10232000030EFB190CE0E6687F0EE66E0C0EE66EFF
:10233000E66ADCEC30F0E552E552E552E5520CEC91
:102340003BF001080CE0E6687F0EE66E0C0EE66ED0
:10235000E66ADCEC30F0E552E552E552E552010E5A
:10236000E66E800EE66E000EE66EE66AE66EE66AE1
:10237000E66EE66A020EE66E0C0E01014115E66E8F
:10238000010EE66E1DEC30F0E552E552E552F3CF5A
:1023900014F0F4CF15F0F3CFE6FFF4CFE6FFF5EC41
:1023A00003F0166E0A0EE15E16508EEC3BF0010E45
:1023B0000001FA1902E1FC0EFB190DE0010EE66EB8
:1023C000800EE66E0C0EE66EE66ADCEC30F0E5524E
:1023D000E552E552E5520CEC3BF002080DE0010E2F
:1023E000E66E800EE66E0C0EE66EE66ADCEC30F011
:1023F000E552E552E552E552010EE66ED8EC3DF0AD
:10240000E5520FEC3BF000090CE1000EE66EE66AC7
:102410000D0EE66EE66ADCEC30F0E552E552E55270
:10242000E5520101476B330E486F0101716B320EAB
:10243000726F010E0101796F7A6B0101776F786B12
:10244000E668E66E000EE66EE66AE66EE66AE66E40
:10245000E66A020EE66E0C0E01014115E66E010EF3
:10246000E66E1DEC30F0E552E552E552F3CF14F084
:10247000F4CF15F0F3CFE6FFF4CFE6FFF5EC03F071
:10248000166E0A0EE15E16508EEC3BF00001FA511A
:10249000FB110CE0E668010EE66E0E0EE66EE66AD3
:1024A000DCEC30F0E552E552E552E5520CEC3BF045
:1024B00001080CE0E668010EE66E0E0EE66EE66AB6
:1024C000DCEC30F0E552E552E552E552000EE66EE6
:1024D000E66AE66EE66AE66EE66AE66EE66A020EB0
:1024E000E66E0C0E01014115E66E010EE66E1DEC66
:1024F00030F0E552E552E552F3CF14F0F4CF15F089
:10250000F3CFE6FFF4CFE6FFF5EC03F0166E0A0E0C
:10251000E15E16508EEC3BF00001FA51FB110CE02D
:10252000000EE66EE66A0E0EE66EE66ADCEC30F051
:10253000E552E552E552E5520CEC3BF001080CE0A7
:10254000000EE66EE66A0E0EE66EE66ADCEC30F031
:10255000E552E552E552E552E668010EE66E000EE0
:10256000E66EE66AE66EE66AE66EE66A020EE66E1B
:102570000C0E01014115E66E010EE66E1DEC30F009
:10258000E552E552E552F3CF14F0F4CF15F0F3CF56
:10259000E6FFF4CFE6FFF5EC03F0166E0A0EE15EFF
:1025A00016508EEC3BF00001FA51FB110CE0E6688E
:1025B000010EE66E0E0EE66EE66ADCEC30F0E552D9
:1025C000E552E552E5520CEC3BF001080CE0E66800
:1025D000010EE66E0E0EE66EE66ADCEC30F0E552B9
:1025E000E552E552E5520101476B320E486FE66A4B
:1025F000020EE66E000EE66EE66AE66EE66AE66ECD
:10260000E66A020EE66E0C0E01014115E66E010E41
:10261000E66E1DEC30F0E552E552E552F3CF14F0D2
:10262000F4CF15F0F3CFE6FFF4CFE6FFF5EC03F0BF
:10263000166E0A0EE15E16508EEC3BF00001FA5168
:10264000FB110CE0E66A020EE66E0E0EE66EE66A1E
:10265000DCEC30F0E552E552E552E5520CEC3BF093
:1026600001080CE0E66A020EE66E0E0EE66EE66A01
:10267000DCEC30F0E552E552E552E5520101476BE2
:10268000310E486F010EE66E020EE66E000EE66E2B
:10269000E66AE66EE66AE66EE66A020EE66E0C0E24
:1026A00001014115E66E010EE66E1DEC30F0E552BB
:1026B000E552E552F3CF14F0F4CF15F0F3CFE6FF77
:1026C000F4CFE6FFF5EC03F0166E0A0EE15E16504D
:1026D0008EEC3BF00001FA51FB110DE0010EE66EAD
:1026E000020EE66E0E0EE66EE66ADCEC30F0E552A7
:1026F000E552E552E5520CEC3BF001080DE0010E0D
:10270000E66E020EE66E0E0EE66EE66ADCEC30F069
:10271000E552E552E552E5520101476B300E486F34
:10272000020EE66EE66E000EE66EE66AE66EE66A9B
:10273000E66EE66A020EE66E0C0E01014115E66ECB
:10274000010EE66E1DEC30F0E552E552E552F3CF96
:1027500014F0F4CF15F0F3CFE6FFF4CFE6FFF5EC7D
:1027600003F0166E0A0EE15E16508EEC3BF000018F
:10277000FA51FB110CE0020EE66EE66E0E0EE66EEE
:10278000E66ADCEC30F0E552E552E552E5520CEC3D
:102790003BF001080CE0020EE66EE66E0E0EE66EF1
:1027A000E66ADCEC30F0E552E552E552E552010113
:1027B000476B2F0E486F030EE66E020EE66E000E9C
:1027C000E66EE66AE66EE66AE66EE66A020EE66EB9
:1027D0000C0E01014115E66E010EE66E1DEC30F0A7
:1027E000E552E552E552F3CF14F0F4CF15F0F3CFF4
:1027F000E6FFF4CFE6FFF5EC03F0166E0A0EE15E9D
:1028000016508EEC3BF00001FA51FB110DE0030E67
:10281000E66E020EE66E0E0EE66EE66ADCEC30F058
:10282000E552E552E552E5520CEC3BF001080DE0B3
:10283000030EE66E020EE66E0E0EE66EE66ADCEC47
:1028400030F0E552E552E552E5520101476B2E0E9C
:10285000486F040EE66E020EE66E000EE66EE66A45
:10286000E66EE66AE66EE66A020EE66E0C0E0101A0
:102870004115E66E010EE66E1DEC30F0E552E552B4
:10288000E552F3CF14F0F4CF15F0F3CFE6FFF4CF19
:10289000E6FFF5EC03F0166E0A0EE15E16508EECC4
:1028A0003BF00001FA51FB110DE0040EE66E020E42
:1028B000E66E0E0EE66EE66ADCEC30F0E552E552AE
:1028C000E552E5520CEC3BF001080DE0040EE66E1B
:1028D000020EE66E0E0EE66EE66ADCEC30F0E552B5
:1028E000E552E552E5520101010E476F2D0E486F8A
:1028F000050EE66E020EE66E000EE66EE66AE66E07
:10290000E66AE66EE66A020EE66E0C0E01014115FD
:10291000E66E010EE66E1DEC30F0E552E552E55232
:10292000F3CF14F0F4CF15F0F3CFE6FFF4CFE6FFCA
:10293000F5EC03F0166E0A0EE15E16508EEC3BF0DD
:102940000001FA51FB110DE0050EE66E020EE66E77
:102950000E0EE66EE66ADCEC30F0E552E552E5522A
:10296000E5520CEC3BF001080DE0050EE66E020EA0
:10297000E66E0E0EE66EE66ADCEC30F0E552E552ED
:10298000E552E5520101476B2D0E486F060EE66ECB
:10299000020EE66E000EE66EE66AE66EE66AE66E29
:1029A000E66A020EE66E0C0E01014115E66E010E9E
:1029B000E66E1DEC30F0E552E552E552F3CF14F02F
:1029C000F4CF15F0F3CFE6FFF4CFE6FFF5EC03F01C
:1029D000166E0A0EE15E16508EEC3BF0060E0001FC
:1029E000FA1902E1020EFB190DE0060EE66E020E68
:1029F000E66E0E0EE66EE66ADCEC30F0E552E5526D
:102A0000E552E5520CEC3BF001080DE0060EE66ED7
:102A1000020EE66E0E0EE66EE66ADCEC30F0E55273
:102A2000E552E552E5520101466B0101880E796FCE
:102A3000130E7A6F020EE15C02E2E16AE552E16E8A
:102A4000E552E7CFD9FF1200D9CFE6FFE1CFD9FF9A
:102A5000E652DF6A400EE66E2AEC2CF0E55237ECC7
:102A600018F00A0E0001C26FC36B0001CE6BCF6B72
:102A7000000EE66EE66A96EC3AF0E552E552E80E94
:102A8000E66ED8EC3DF0E5520FEC3BF0DF6EE66809
:102A9000030EE66E000EE66EE66AE66EE66AE66E27
:102AA000E66A010EE66E0C0E01014115E66E010E9E
:102AB000E66E1DEC30F0E552E552E552F3CF14F02E
:102AC000F4CF15F0F3CFE6FFF4CFE6FFF5EC03F01B
:102AD000166E0A0EE15E16508EEC3BF0010E000100
:102AE000D41902E1FC0ED5190CE0020EE66EE66A7E
:102AF0001E0EE66EE66ADCEC30F0E552E552E55279
:102B0000E552010E0001FA1902E1FC0EFB190CE07E
:102B1000030EE66EE66A1E0EE66EE66ADCEC30F048
:102B2000E552E552E552E5520CEC3BF002080CE0B0
:102B3000040EE66EE66A1E0EE66EE66ADCEC30F027
:102B4000E552E552E552E552000EE66EE66A96EC75
:102B50003AF0E552E552E552E552E7CFD9FF1200CF
:102B6000400EE66E2AEC2CF0E5520101470E446F50
:102B7000810E456F040EE66E010E01014115E66EF1
:102B8000E66A1DEC30F0E552E552E552F3CF14F061
:102B9000F4CF15F0F3CFE6FFF4CFE6FFBEEC03F081
:102BA000E552E55249CF87F148CF86F1470E010142
:102BB000861902E1810E87190CE0010EE66EE66AC5
:102BC000160EE66EE66ADCEC30F0E552E552E552B0
:102BD000E5520F014251E00BE838E840146E4151D4
:102BE000080DF35014100101856F0F0E85150408B0
:102BF0000BE0E668E668160EE66EE66ADCEC30F09E
:102C0000E552E552E552E552B5EC30F00001230EF5
:102C1000FA6F010EFB6F030EE66E010E0101411506
:102C2000E66EE66A1DEC30F0E552E552E552F3CF70
:102C300014F0F4CF15F0F3CFE6FFF4CFE6FFBEECCF
:102C400003F0E552E55249CF87F148CF86F1230ED4
:102C50000101861902E1010E87190CE0020EE66EF1
:102C6000E66A160EE66EE66ADCEC30F0E552E552F6
:102C7000E552E5520F014251E00BE838E840146E8E
:102C80004151080DF35014100101856F0F0E851589
:102C900003080CE0FE0EE66EE668160EE66EE66AC7
:102CA000DCEC30F0E552E552E552E552B5EC30F09F
:102CB0000101360E496F700E4A6F050EE66E010E69
:102CC00001014115E66EE66A1DEC30F0E552E55271
:102CD000E552F3CF14F0F4CF15F0F3CFE6FFF4CFC5
:102CE000E6FFBEEC03F0E552E55249CF87F148CF4D
:102CF00086F1360E0101861902E1700E87190CE08B
:102D0000030EE66EE66A160EE66EE66ADCEC30F05E
:102D1000E552E552E552E5520F014251E00BE83829
:102D2000E840146E4151080DF35014100101856FF5
:102D30000F0E851505080CE0FD0EE66EE668160E12
:102D4000E66EE66ADCEC30F0E552E552E552E5521B
:102D5000B5EC30F00101250E4B6F690E4C6F060E7D
:102D6000E66E010E01014115E66EE66A1DEC30F0DB
:102D7000E552E552E552F3CF14F0F4CF15F0F3CF5E
:102D8000E6FFF4CFE6FFBEEC03F0E552E55249CF93
:102D900087F148CF86F1250E0101861902E1690EFF
:102DA00087190CE0040EE66EE66A160EE66EE66A19
:102DB000DCEC30F0E552E552E552E5520F014251AC
:102DC000E00BE838E840146E4151080DF350141040
:102DD0000101856F0F0E851506080CE0FC0EE66EEE
:102DE000E668160EE66EE66ADCEC30F0E552E55277
:102DF000E552E552B5EC30F00101140E476F580E64
:102E0000486F070EE66E010E01014115E66EE66A97
:102E10001DEC30F0E552E552E552F3CF14F0F4CF5B
:102E200015F0F3CFE6FFF4CFE6FFBEEC03F0E5527A
:102E3000E55249CF87F148CF86F1140E010186197A
:102E400002E1580E87190CE0050EE66EE66A160ED2
:102E5000E66EE66ADCEC30F0E552E552E552E5520A
:102E60000F014251E00BE838E840146E4151080D63
:102E7000F35014100101856F0F0E851507080CE043
:102E8000FB0EE66EE668160EE66EE66ADCEC30F0E7
:102E9000E552E552E552E552B5EC30F00001030E83
:102EA000E66F470EE76F080EE66E010E0101411551
:102EB000E66EE66A1DEC30F0E552E552E552F3CFDE
:102EC00014F0F4CF15F0F3CFE6FFF4CFE6FFBEEC3D
:102ED00003F0E552E55249CF87F148CF86F1040E61
:102EE0000101861902E1470E87190CE0060EE66E15
:102EF000E66A160EE66EE66ADCEC30F0E552E55264
:102F0000E552E5520F014251E00BE838E840146EFB
:102F10004151080DF35014100101856F0F0E8515F6
:102F200008080CE0FA0EE66EE668160EE66EE66A33
:102F3000DCEC30F0E552E552E552E552B5EC30F00C
:102F40000001920EE86F360EE96F090EE66E010E73
:102F500001014115E66EE66A1DEC30F0E552E552DE
:102F6000E552F3CF14F0F4CF15F0F3CFE6FFF4CF32
:102F7000E6FFBEEC03F0E552E55249CF87F148CFBA
:102F800086F1930E0101861902E1360E87190CE0D5
:102F9000070EE66EE66A160EE66EE66ADCEC30F0C8
:102FA000E552E552E552E5520F014251E00BE83897
:102FB000E840146E4151080DF35014100101856F63
:102FC0000F0E851509080CE0F90EE66EE668160E80
:102FD000E66EE66ADCEC30F0E552E552E552E55289
:042FE000B5EF30F029
:0C2FE4000001FF0EBF6BB5AFFEEF17F051
:102FF000B41BB51BB42BD8B0B52BBF71B7AF07EF5F
:1030000018F0B61BB71BB62BD8B0B72BBF71B4C026
:10301000BEF00000B451B603F4CFB3F00000F3CF1C
:10302000B2F00000B551B703F4CFB5F00000F3CF14
:10303000B4F00000B603F350B327F450B423E86AA9
:10304000B523BE51B703F350B327F450B423E86A55
:10305000B523BFA136EF18F0FF0EB21BB31BB41B94
:10306000B51B000EB22BB323B423B5231200D9CF66
:10307000E6FFE1CFD9FFE6520001C06BC16BC26B26
:10308000C36BC46BC56BC66BC76BC86BC96BCA6BB4
:10309000CB6BCC6BCD6BCE6BCF6BD06BD16BD46B62
:1030A000D56BD66BDF6A100EDF5C0DE2EA6ADF34A7
:1030B000FE0BEA36E96E800EE926000EEA22EE6A81
:1030C000ED6ADF2AF0D7E552E552E7CFD9FF1200CB
:1030D000CEC0D9F0CFC0DAF00001D051D95FD151C4
:1030E000DA5BCC513CE0DA351BE2D9510008000E26
:1030F000DA5516E2CC51146E156A1550DA19E8AE9D
:1031000002D0DA3504D0D951145CDA51155825E2D1
:10311000CC51146E156A1450D95F1550DA5B1FD06C
:10312000800EDA151CE0CC51146E156A146C151E55
:10313000000E1522DA511518E8AE02D0153404D06D
:103140001450D95D1550DA5908E2CC51146E156A45
:103150001450D9271550DA2302D0D96BDA6BC2C0CC
:10316000B4F0C3C0B5F0D9C0B6F0DAC0B7F03ADFFA
:10317000B2C0A4F0B3C0A5F0B4C0A6F0B5C0A7F02B
:103180000001D951D727DA51D823D83515E2D751C4
:103190000008000ED85510E2C951D819E8AE02D087
:1031A000D83504D0D751C85DD851C95914E2C8C028
:1031B000D7F0C9C0D8F00FD0D851CB19E8AE02D0A3
:1031C000CB3504D0CA51D75DCB51D85904E2CAC01F
:1031D000D7F0CBC0D8F0C4C0B4F0C5C0B5F0D7C0EC
:1031E000B6F0D8C0B7F0FEDEB3C0ACF0B4C0ADF0FE
:1031F000B5C0AEF00001AF6BAEBFAF690001D651F4
:10320000E96EEA6AD890E936EA36800EE926000EC1
:10321000EA22D9C0EEFFDAC0EDFFD62B0F0ED6178B
:10322000D9C0B0F0DAC0B1F0D651E96EEA6AD890F0
:10323000E936EA36800EE926000EEA22EE50000159
:10324000B05FEE50B15BB0C0B4F0B1C0B5F0C6C075
:10325000B6F0C7C0B7F0C6DEB2C0A8F0B3C0A9F0E0
:10326000B4C0AAF0B5C0ABF0C0C0B4F0C1C0B5F0F6
:10327000D0C0B6F0D1C0B7F0B5DEB2C0A0F0B3C0D8
:10328000A1F0B4C0A2F0B5C0A3F0A5C0E0F0A6C004
:10329000E1F0ADC0E2F0AEC0E3F0A9C0E4F0AAC036
:1032A000E5F0A80EE96E000EEA6E0001A451EE24CE
:1032B000146EA551EE20156EA651EE20166EA75184
:1032C000EE20176EA00EE96E000EEA6EEE50145C52
:1032D0000001DB6FEE501558DC6FEE501658DD6FB5
:1032E000EE501758DCC0DBF0DDC0DCF0DD6FDE6BCC
:1032F000DDBFDE690001AC510001DB270001AD51EB
:103300000001DC230001AE510001DD230001AF51BB
:103310000001DE23DE35000EDE1909E6D880000E3E
:10332000DB55000EDC55000EDD55000EDE5509E2C2
:10333000030ED890DE33DD33DC33DB33E806F9E10E
:1033400029D0DBC014F0DCC015F0DDC016F0DEC003
:1033500017F0000E146C151E1522161E1622171ECD
:103360001722030ED8901732163215321432E8069F
:10337000F9E114C0DBF015C0DCF016C0DDF017C0B9
:10338000DEF0000E0001DB6DDC1FDC23DD1FDD2322
:10339000DE1FDE230001DE35000EDE1909E6D880CF
:1033A000FF0EDB55030EDC55000EDD55000EDE551D
:1033B00006E2DB69030EDC6FDD6BDE6B13D0D880B9
:1033C000DE51FF0A08E6010EDB5DFC0EDC59FF0E44
:1033D000DD59FF0EDE5906E2010EDB6FFC0EDC6FDD
:1033E000DD69DE69CD5105E1DBC0D4F0DCC0D5F08C
:1033F0001200DBC006F0DCC007F0DDC008F0DEC064
:1034000009F00B680C680D680E6873EC3DF002C0A3
:10341000D4F003C0D5F012000001C06B100EC16FD4
:10342000C26BC36BC46BC56BC66BC76BC86BC96B18
:10343000CA6BCB6BCC6BCD6BF60ECE6FCF690A0E21
:10344000D06FD16B45DEEC0E0001D41902E1FF0E06
:10345000D5190DE0EC0EE66EE6680F0EE66EE66A34
:10346000DCEC30F0E552E552E552E55204D00101C2
:10347000422B000E43230001CE6BCF6BD06BD16B80
:1034800027DE0001D451D5110DE0000EE66EE66A8C
:103490000F0EE66EE66ADCEC30F0E552E552E552DE
:1034A000E55204D00101422B000E43230A0E000115
:1034B000CE6FCF6BF60ED06FD1690ADE0001140E0D
:1034C000D41901E1D5510DE0140EE66EE66A0F0E37
:1034D000E66EE66ADCEC30F0E552E552E552E55284
:1034E00004D00101422B000E43230001CE697F0E60
:1034F000CF6FD069D16FECDD010E0001D41902E16C
:10350000FC0ED5190EE0010EE66EFC0EE66E0F0EF7
:10351000E66EE66ADCEC30F0E552E552E552E55243
:1035200004D00101422B000E43230001CE693F0E5F
:10353000CF6FD069D16FCCDD010E0001D41902E14B
:10354000FC0ED5190EE0010EE66EFC0EE66E0F0EB7
:10355000E66EE66ADCEC30F0E552E552E552E55203
:1035600004D00101422B000E43230001010ECE6F57
:10357000C00ECF6F010ED06FC00ED16FA9DDFF0E50
:103580000001D41902E1030ED5190DE0E668030E1F
:10359000E66E0F0EE66EE66ADCEC30F0E552E552C0
:1035A000E552E55204D00101422B000E43230001F5
:1035B000010ECE6F800ECF6F010ED06F800ED16FD7
:1035C00087DDFF0E0001D41902E1030ED5190DE0CD
:1035D000E668030EE66E0F0EE66EE66ADCEC30F08F
:1035E000E552E552E552E55204D00101422B000EAE
:1035F00043230001C0697F0EC16FF60ECE6FCF6905
:10360000D00ED06F070ED16F63DD010E0001D4190B
:1036100002E1FC0ED5190EE0010EE66EFC0EE66E20
:103620000F0EE66EE66ADCEC30F0E552E552E5524C
:10363000E55204D00101422B000E43230001F60E97
:10364000CE6FCF690A0ED06FD16B42DD600E0001E4
:10365000D41902E1FF0ED5190DE0600EE66EE668A2
:103660000F0EE66EE66ADCEC30F0E552E552E5520C
:10367000E55204D00101422B000E43230001CE6B22
:10368000CF6BD06BD16B24DD0001D451D5110DE08F
:10369000000EE66EE66A0F0EE66EE66ADCEC30F0CF
:1036A000E552E552E552E55204D00101422B000EED
:1036B00043230A0E0001CE6FCF6BF60ED06FD16997
:1036C00007DD00019F0ED41901E1D5510DE09F0ED9
:1036D000E66EE66A0F0EE66EE66ADCEC30F0E55266
:1036E000E552E552E55204D00101422B000E43237E
:1036F0000001F60ECE6FCF69300ED06FF80ED16F8D
:10370000E7DCFF0E0001D41902E1030ED5190DE02C
:10371000E668030EE66E0F0EE66EE66ADCEC30F04D
:10372000E552E552E552E55204D00101422B000E6C
:1037300043230001CE697F0ECF6FD069D16FC8DC03
:10374000010E0001D41902E1FC0ED5190EE0010EA4
:10375000E66EFC0EE66E0F0EE66EE66ADCEC30F00E
:10376000E552E552E552E55204D00101422B000E2C
:1037700043230001CE693F0ECF6FD069D16FA8DC23
:10378000010E0001D41902E1FC0ED5190EE0010E64
:10379000E66EFC0EE66E0F0EE66EE66ADCEC30F0CE
:1037A000E552E552E552E55204D00101422B000EEC
:1037B00043230001010ECE6FC00ECF6F010ED06FFC
:1037C000C00ED16F85DCFF0E0001D41902E1030E9B
:1037D000D5190DE0E668030EE66E0F0EE66EE66A9A
:1037E000DCEC30F0E552E552E552E55204D001013F
:1037F000422B000E43230001010ECE6F800ECF6FCF
:10380000010ED06F800ED16F63DCFF0E0001D41962
:1038100002E1030ED5190DE0E668030EE66E0F0E09
:10382000E66EE66ADCEC30F0E552E552E552E55230
:1038300012000101422B000E432312000001C06B55
:10384000C16BC26BF00EC36FC46BC56BC66BC76B2D
:10385000C86BC96BCA6BCB6BCC6BCD6B010ECE6FDB
:10386000CF6BD06BD16B34DCFE0E0001D41902E1BA
:10387000FF0ED5190DE0FE0EE66EE668100EE66E40
:10388000E66ADCEC30F0E552E552E552E55204D050
:103890000101422B000E43230001CE6BCF6B010EC2
:1038A000D06FD16B15DC0001020ED41901E1D551A6
:1038B0000DE0020EE66EE66A100EE66EE66ADCECDD
:1038C00030F0E552E552E552E55204D00101422BB9
:1038D000000E4323020E0001CE6FCF6BD06BD16B75
:1038E00068EC18F0FC0E0001D41902E1FF0ED519A6
:1038F0000DE0FC0EE66EE668100EE66EE66ADCECA5
:1039000030F0E552E552E552E55204D00101422B78
:10391000000E43230001CE6BCF6B020ED06FD16B34
:1039200068EC18F00001040ED41901E1D5510DE046
:10393000040EE66EE66A100EE66EE66ADCEC30F027
:10394000E552E552E552E55204D00101422B000E4A
:1039500043230001CE697F0ECF6FD06BD16B68EC33
:1039600018F0010E0001D41902E1FC0ED5190EE089
:10397000010EE66EFC0EE66E100EE66EE66ADCECFC
:1039800030F0E552E552E552E55204D00101422BF8
:10399000000E43230001CE693F0ECF6FD06BD16B79
:1039A00068EC18F0010E0001D41902E1FC0ED519E3
:1039B0000EE0010EE66EFC0EE66E100EE66EE66A96
:1039C000DCEC30F0E552E552E552E55204D001015D
:1039D000422B000E43230001010ECE6FC00ECF6FAD
:1039E000D06BD16B68EC18F0FF0E0001D41902E126
:1039F000030ED5190DE0E668030EE66E100EE66EB6
:103A0000E66ADCEC30F0E552E552E552E55204D0CE
:103A10000101422B000E43230001010ECE6F800EE8
:103A2000CF6FD06BD16B68EC18F0FF0E0001D4198A
:103A300002E1030ED5190DE0E668030EE66E100EE6
:103A4000E66EE66ADCEC30F0E552E552E552E5520E
:103A500004D00101422B000E43230001C26B100E63
:103A6000C36F0A0ECE6FCF6BD06FD16B68EC18F0BE
:103A70000001D451D5110DE0000EE66EE66A100E7D
:103A8000E66EE66ADCEC30F0E552E552E552E552CE
:103A900004D00101422B000E43230001CE6BCF6BFB
:103AA000D06BD16B68EC18F00001D451D5110DE04A
:103AB000000EE66EE66A100EE66EE66ADCEC30F0AA
:103AC000E552E552E552E55204D00101422B000EC9
:103AD00043230001F60ECE6FCF69D06FD16968EC39
:103AE00018F00001D451D5110DE0000EE66EE66A23
:103AF000100EE66EE66ADCEC30F0E552E552E55277
:103B0000E55204D00101422B000E43230001CE698F
:103B10007F0ECF6FD069D16F68EC18F00001D451DF
:103B2000D5110DE0000EE66EE66A100EE66EE66A4E
:103B3000DCEC30F0E552E552E552E55204D00101EB
:103B4000422B000E43230001CE693F0ECF6FD06998
:103B5000D16F68EC18F00001D451D5110DE0000EC2
:103B6000E66EE66A100EE66EE66ADCEC30F0E552D0
:103B7000E552E552E55204D00101422B000E4323E9
:103B80000001010ECE6FC00ECF6F010ED06FC00EC0
:103B9000D16F68EC18F00001D451D5110DE0000E82
:103BA000E66EE66A100EE66EE66ADCEC30F0E55290
:103BB000E552E552E55204D00101422B000E4323A9
:103BC0000001010ECE6F800ECF6F010ED06F800E00
:103BD000D16F68EC18F00001D451D5110DE0000E42
:103BE000E66EE66A100EE66EE66ADCEC30F0E55250
:103BF000E552E552E55204D00101422B000E432369
:103C0000010E0001CE6FCF6BD06BD16B68EC18F05A
:103C10000001020ED41901E1D5510DE0020EE66E4D
:103C2000E66A100EE66EE66ADCEC30F0E552E5522C
:103C3000E552E55204D00101422B000E432300015E
:103C4000CE6BCF6B010ED06FD16B68EC18F0FE0E0F
:103C50000001D41902E1FF0ED5190DE0FE0EE66E4B
:103C6000E668100EE66EE66ADCEC30F0E552E552EE
:103C7000E552E55204D00101422B000E4323020E0F
:103C80000001CE6FCF6BD06BD16B68EC18F00001E8
:103C9000040ED41901E1D5510DE0040EE66EE66A7A
:103CA000100EE66EE66ADCEC30F0E552E552E552C5
:103CB000E55204D00101422B000E43230001CE6BDC
:103CC000CF6B020ED06FD16B68EC18F0FC0E0001C8
:103CD000D41902E1FF0ED5190DE0FC0EE66EE66880
:103CE000100EE66EE66ADCEC30F0E552E552E55285
:103CF000E55204D00101422B000E43230001CE699E
:103D00007F0ECF6FD06BD16B68EC18F0FF0E000107
:103D1000D41902E1030ED5190DE0E668030EE66E34
:103D2000100EE66EE66ADCEC30F0E552E552E55244
:103D3000E55204D00101422B000E43230001CE695D
:103D40003F0ECF6FD06BD16B68EC18F0FF0E000107
:103D5000D41902E1030ED5190DE0E668030EE66EF4
:103D6000100EE66EE66ADCEC30F0E552E552E55204
:103D7000E55204D00101422B000E43230001010E45
:103D8000CE6FC00ECF6FD06BD16B68EC18F0010E08
:103D90000001D41902E1FC0ED5190EE0010EE66E09
:103DA000FC0EE66E100EE66EE66ADCEC30F0E552D4
:103DB000E552E552E55204D00101422B000E4323A7
:103DC0000001010ECE6F800ECF6FD06BD16B68EC0F
:103DD00018F0010E0001D41902E1FC0ED5190EE015
:103DE000010EE66EFC0EE66E100EE66EE66ADCEC88
:103DF00030F0E552E552E552E55204D00101422B84
:103E0000000E43230001C26B100EC36F640ECE6F11
:103E1000CF6BD06FD16B68EC18F00001D451D51185
:103E20000DE0000EE66EE66A100EE66EE66ADCEC69
:103E300030F0E552E552E552E55204D00101422B43
:103E4000000E43230001CE6BCF6BD06BD16B68ECBF
:103E500018F00001D451D5110DE0000EE66EE66AAF
:103E6000100EE66EE66ADCEC30F0E552E552E55203
:103E7000E55204D00101422B000E432300019C0EA9
:103E8000CE6FCF69D06FD16968EC18F00001D451C2
:103E9000D5110DE0000EE66EE66A100EE66EE66ADB
:103EA000DCEC30F0E552E552E552E55204D0010178
:103EB000422B000E43230001CE697F0ECF6FD069E5
:103EC000D16F68EC18F00001D451D5110DE0000E4F
:103ED000E66EE66A100EE66EE66ADCEC30F0E5525D
:103EE000E552E552E55204D00101422B000E432376
:103EF0000001CE693F0ECF6FD069D16F68EC18F02A
:103F00000001D451D5110DE0000EE66EE66A100EE8
:103F1000E66EE66ADCEC30F0E552E552E552E55239
:103F200004D00101422B000E43230001010ECE6F8D
:103F3000C00ECF6F010ED06FC00ED16F68EC18F0BD
:103F40000001D451D5110DE0000EE66EE66A100EA8
:103F5000E66EE66ADCEC30F0E552E552E552E552F9
:103F600004D00101422B000E43230001010ECE6F4D
:103F7000800ECF6F010ED06F800ED16F68EC18F0FD
:103F80000001D451D5110DE0000EE66EE66A100E68
:103F9000E66EE66ADCEC30F0E552E552E552E552B9
:103FA00004D00101422B000E4323010E0001CE6F0D
:103FB000CF6BD06BD16B68EC18F00001020ED419F6
:103FC00001E1D5510DE0020EE66EE66A100EE66ED6
:103FD000E66ADCEC30F0E552E552E552E55204D0F9
:103FE0000101422B000E43230001CE6BCF6B010E6B
:103FF000D06FD16B68EC18F0FE0E0001D41902E10D
:10400000FF0ED5190DE0FE0EE66EE668100EE66EA8
:10401000E66ADCEC30F0E552E552E552E55204D0B8
:104020000101422B000E4323020E0001CE6FCF6B25
:10403000D06BD16B68EC18F00001040ED41901E1CB
:10404000D5510DE0040EE66EE66A100EE66EE66AE5
:10405000DCEC30F0E552E552E552E55204D00101C6
:10406000422B000E43230001CE6BCF6B020ED06FAC
:10407000D16B68EC18F0FC0E0001D41902E1FF0EC0
:10408000D5190DE0FC0EE66EE668100EE66EE66AE7
:10409000DCEC30F0E552E552E552E55204D0010186
:1040A000422B000E43230001CE697F0ECF6FD06BF1
:1040B000D16B68EC18F0FF0E0001D41902E1030E79
:1040C000D5190DE0E668030EE66E100EE66EE66AA0
:1040D000DCEC30F0E552E552E552E55204D0010146
:1040E000422B000E43230001CE693F0ECF6FD06BF1
:1040F000D16B68EC18F0FF0E0001D41902E1030E39
:10410000D5190DE0E668030EE66E100EE66EE66A5F
:10411000DCEC30F0E552E552E552E55204D0010105
:10412000422B000E43230001010ECE6FC00ECF6F55
:10413000D06BD16B68EC18F0010E0001D41902E1CC
:10414000FC0ED5190EE0010EE66EFC0EE66E100EAA
:10415000E66EE66ADCEC30F0E552E552E552E552F7
:1041600004D00101422B000E43230001010ECE6F4B
:10417000800ECF6FD06BD16B68EC18F0010E000190
:10418000D41902E1FC0ED5190EE0010EE66EFC0E0C
:10419000E66E100EE66EE66ADCEC30F0E552E552B3
:1041A000E552E55204D00101422B000E43230001E9
:1041B000C26B600EC36F0A0ECE6FCF6BD06FD16B28
:1041C00068EC18F00001D451D5110DE0000EE66E38
:1041D000E66A100EE66EE66ADCEC30F0E552E55277
:1041E000E552E55204D00101422B000E43230001A9
:1041F000CE6BCF6BD06BD16B68EC18F00001D45153
:10420000D5110DE0000EE66EE66A100EE66EE66A67
:10421000DCEC30F0E552E552E552E55204D0010104
:10422000422B000E43230001F60ECE6FCF69D06FF4
:10423000D16968EC18F00001D451D5110DE0000EE1
:10424000E66EE66A100EE66EE66ADCEC30F0E552E9
:10425000E552E552E55204D00101422B000E432302
:104260000001CE697F0ECF6FD069D16F68EC18F076
:104270000001D451D5110DE0000EE66EE66A100E75
:10428000E66EE66ADCEC30F0E552E552E552E552C6
:1042900004D00101422B000E43230001CE693F0EE2
:1042A000CF6FD069D16F68EC18F00001D451D511EF
:1042B0000DE0000EE66EE66A100EE66EE66ADCECD5
:1042C00030F0E552E552E552E55204D00101422BAF
:1042D000000E43230001010ECE6FC00ECF6F010E02
:1042E000D06FC00ED16F68EC18F00001D451D51119
:1042F0000DE0000EE66EE66A100EE66EE66ADCEC95
:1043000030F0E552E552E552E55204D00101422B6E
:10431000000E43230001010ECE6F800ECF6F010E01
:10432000D06F800ED16F68EC18F00001D451D51118
:104330000DE0000EE66EE66A100EE66EE66ADCEC54
:1043400030F0E552E552E552E55204D00101422B2E
:10435000000E4323010E0001CE6FCF6BD06BD16BEB
:1043600068EC18F000010C0ED41901E1D5510DE0F4
:104370000C0EE66EE66A100EE66EE66ADCEC30F0D5
:10438000E552E552E552E55204D00101422B000E00
:1043900043230001CE6BCF6B010ED06FD16B68EC65
:1043A00018F0F40E0001D41902E1FF0ED5190DE04A
:1043B000F40EE66EE668100EE66EE66ADCEC30F0AF
:1043C000E552E552E552E55204D00101422B000EC0
:1043D0004323020E0001CE6FCF6BD06BD16B68EC24
:1043E00018F00001180ED41901E1D5510DE0180E96
:1043F000E66EE66A100EE66EE66ADCEC30F0E55238
:10440000E552E552E55204D00101422B000E432350
:104410000001CE6BCF6B020ED06FD16B68EC18F041
:10442000E80E0001D41902E1FF0ED5190DE0E80EE7
:10443000E66EE668100EE66EE66ADCEC30F0E552F9
:10444000E552E552E55204D00101422B000E432310
:104450000001CE697F0ECF6FD06BD16B68EC18F086
:10446000FF0E0001D41902E1030ED5190DE0E66834
:10447000030EE66E100EE66EE66ADCEC30F0E552F6
:10448000E552E552E55204D00101422B000E4323D0
:104490000001CE693F0ECF6FD06BD16B68EC18F086
:1044A000FF0E0001D41902E1030ED5190DE0E668F4
:1044B000030EE66E100EE66EE66ADCEC30F0E552B6
:1044C000E552E552E55204D00101422B000E432390
:1044D0000001010ECE6FC00ECF6FD06BD16B68ECB8
:1044E00018F0010E0001D41902E1FC0ED5190EE0FE
:1044F000010EE66EFC0EE66E100EE66EE66ADCEC71
:1045000030F0E552E552E552E55204D00101422B6C
:10451000000E43230001010ECE6F800ECF6FD06BD3
:10452000D16B68EC18F0010E0001D41902E1FC0E09
:10453000D5190EE0010EE66EFC0EE66E100EE66E6C
:10454000E66ADCEC30F0E552E552E552E552120045
:104550000101422B000E43231200D9CFE6FFE1CF29
:10456000D9FF020EE1260001C06BC16BC26BC36BA9
:10457000C46B100EC56FC66BC76B050EC86FC96BD9
:10458000CA6BCB6BCC6BCD6B0A0ECE6FCF6BD06F83
:10459000D16B68EC18F00001D451D5110DE0000E7C
:1045A000E66EE66A110EE66EE66ADCEC30F0E55285
:1045B000E552E552E55204D00101422B000E43239F
:1045C0000001CE6BCF6BD06BD16B68EC18F00001A3
:1045D000D451D5110DE0000EE66EE66A110EE66EBE
:1045E000E66ADCEC30F0E552E552E552E55204D0E3
:1045F0000101422B000E43230001F60ECE6FCF695E
:10460000D06FD16968EC18F00001D451D5110DE0DC
:10461000000EE66EE66A110EE66EE66ADCEC30F03D
:10462000E552E552E552E55204D00101422B000E5D
:1046300043230001CE697F0ECF6FD069D16F68EC44
:1046400018F00001D451D5110DE0000EE66EE66AB7
:10465000110EE66EE66ADCEC30F0E552E552E5520A
:10466000E55204D00101422B000E43230001CE6924
:104670003F0ECF6FD069D16F68EC18F00001D451B4
:10468000D5110DE0000EE66EE66A110EE66EE66AE2
:10469000DCEC30F0E552E552E552E55204D0010180
:1046A000422B000E43230001010ECE6FC00ECF6FD0
:1046B000010ED06FC00ED16F68EC18F00001D4511C
:1046C000D5110DE0000EE66EE66A110EE66EE66AA2
:1046D000DCEC30F0E552E552E552E55204D0010140
:1046E000422B000E43230001010ECE6F800ECF6FD0
:1046F000010ED06F800ED16F68EC18F00001D4511C
:10470000D5110DE0000EE66EE66A110EE66EE66A61
:10471000DCEC30F0E552E552E552E55204D00101FF
:10472000422B000E4323010E0001CE6FCF6BD06BE6
:10473000D16B68EC18F00001020ED41901E1D551DB
:104740000DE0020EE66EE66A110EE66EE66ADCEC3D
:1047500030F0E552E552E552E55204D00101422B1A
:10476000000E4323010E0001CE6FCF6BD06BD16BD7
:1047700068EC18F00001040ED41901E1D5510DE0E8
:10478000040EE66EE66A110EE66EE66ADCEC30F0C8
:10479000E552E552E552E55204D00101422B000EEC
:1047A0004323010E0001CE6FCF6BD06BD16B68EC51
:1047B00018F00001060ED41901E1D5510DE0060EE6
:1047C000E66EE66A110EE66EE66ADCEC30F0E55263
:1047D000E552E552E55204D00101422B000E43237D
:1047E000010E0001CE6FCF6BD06BD16B68EC18F06F
:1047F0000001080ED41901E1D5510DE0080EE66E56
:10480000E66A110EE66EE66ADCEC30F0E552E5523F
:10481000E552E55204D00101422B000E4323010E64
:104820000001CE6FCF6BD06BD16B68EC18F000013C
:104830000A0ED41901E1D5510DE00A0EE66EE66AC2
:10484000110EE66EE66ADCEC30F0E552E552E55218
:10485000E55204D00101422B000E4323010E00015A
:10486000CE6FCF6BD06BD16B68EC18F000010A0EE5
:10487000D41901E1D5510DE00A0EE66EE66A110E7B
:10488000E66EE66ADCEC30F0E552E552E552E552C0
:1048900004D00101422B000E4323010E0001CE6F14
:1048A000CF6BD06BD16B68EC18F000010A0ED419F5
:1048B00001E1D5510DE00A0EE66EE66A110EE66ED4
:1048C000E66ADCEC30F0E552E552E552E55204D000
:1048D0000101422B000E4323080E0001C46FC56B7B
:1048E000C8693F0EC96FD76BD86BCE6B100ECF6FF8
:1048F000D06BD16B68EC18F00001100ED41901E1F7
:10490000D5510DE0100EE66EE66A110EE66EE66A0F
:10491000DCEC30F0E552E552E552E55204D00101FD
:10492000422B000E43230001CE6B100ECF6FD06BD5
:10493000D16B68EC18F00001200ED41901E1D551BB
:104940000DE0200EE66EE66A110EE66EE66ADCEC1D
:1049500030F0E552E552E552E55204D00101422B18
:10496000000E43230001CE6B100ECF6FD06BD16BC6
:1049700068EC18F00001300ED41901E1D5510DE0BA
:10498000300EE66EE66A110EE66EE66ADCEC30F09A
:10499000E552E552E552E55204D00101422B000EEA
:1049A00043230001CE6B100ECF6FD06BD16B68EC40
:1049B00018F000013F0ED41901E1D5510DE03F0E72
:1049C000E66EE66A110EE66EE66ADCEC30F0E55261
:1049D000E552E552E55204D00101422B000E43237B
:1049E0000001CE6B100ECF6FD06BD16B68EC18F05E
:1049F00000013F0ED41901E1D5510DE03F0EE66EE6
:104A0000E66A110EE66EE66ADCEC30F0E552E5523D
:104A1000E552E55204D00101422B000E4323020E61
:104A2000E15C02E2E16AE552E16EE552E7CFD9FFCF
:104A3000120037EC18F00A0E0001CE6FCF6B68EC55
:104A400018F0140E0001CE6FCF6B68EC18F01E0E3C
:104A50000001CE6FCF6B68EC18F000010A0E8019D0
:104A60000CE181510AE1140E821907E1835105E13D
:104A70001E0E841901E185510CE0010EE66EE66A16
:104A8000130EE66EE66ADCEC30F0E552E552E552D4
:104A9000E55237EC18F00001C06BC16BC26BC36B01
:104AA000C46BC56BC66B080EC76FC86BC96BCA6B8E
:104AB000CB6BCC6BCD6B010ECE6FCF6BD06BD16B54
:104AC00068EC18F00001010ED41901E1D5510DE098
:104AD000010EE66EE66A130EE66EE66ADCEC30F076
:104AE000E552E552E552E55204D00101422B000E99
:104AF0004323020E0001CE6FCF6BD06BD16B68ECFD
:104B000018F00001020ED41901E1D5510DE0020E9A
:104B1000E66EE66A130EE66EE66ADCEC30F0E5520D
:104B2000E552E552E55204D00101422B000E432329
:104B3000030E0001CE6FCF6BD06BD16B68EC18F019
:104B40000001030ED41901E1D5510DE0030EE66E0C
:104B5000E66A130EE66EE66ADCEC30F0E552E552EA
:104B6000E552E55204D00101422B000E4323040E0E
:104B70000001CE6FCF6BD06BD16B68EC18F00001E9
:104B8000040ED41901E1D5510DE0040EE66EE66A7B
:104B9000130EE66EE66ADCEC30F0E552E552E552C3
:104BA000E55204D00101422B000E4323050E000103
:104BB000CE6FCF6BD06BD16B68EC18F00001050E97
:104BC000D41901E1D5510DE0050EE66EE66A130E2B
:104BD000E66EE66ADCEC30F0E552E552E552E5526D
:104BE00004D00101422B000E4323060E0001CE6FBC
:104BF000CF6BD06BD16B68EC18F00001060ED419A6
:104C000001E1D5510DE0060EE66EE66A130EE66E82
:104C1000E66ADCEC30F0E552E552E552E55204D0AC
:104C20000101422B000E4323070E0001CE6FCF6B14
:104C3000D06BD16B68EC18F00001070ED41901E1BC
:104C4000D5510DE0070EE66EE66A130EE66EE66AD3
:104C5000DCEC30F0E552E552E552E55204D00101BA
:104C6000422B000E4323080E0001CE6FCF6BD06B9A
:104C7000D16B68EC18F00001080ED41901E1D55190
:104C80000DE0080EE66EE66A130EE66EE66ADCECF0
:104C900030F0E552E552E552E55204D00101422BD5
:104CA000000E4323090E0001CE6FCF6BD06BD16B8A
:104CB00068EC18F00001090ED41901E1D5510DE09E
:104CC000090EE66EE66A130EE66EE66ADCEC30F07C
:104CD000E552E552E552E55204D00101422B000EA7
:104CE00043230A0E0001CE6FCF6BD06BD16B68EC03
:104CF00018F000010A0ED41901E1D5510DE00A0E99
:104D0000E66EE66A130EE66EE66ADCEC30F0E5521B
:104D1000E552E552E55204D00101422B000E432337
:104D20000B0E0001CE6FCF6BD06BD16B68EC18F01F
:104D300000010B0ED41901E1D5510DE00B0EE66E0A
:104D4000E66A130EE66EE66ADCEC30F0E552E552F8
:104D5000E552E55204D00101422B000E43230C0E14
:104D60000001CE6FCF6BD06BD16B68EC18F00001F7
:104D70000C0ED41901E1D5510DE00C0EE66EE66A79
:104D8000130EE66EE66ADCEC30F0E552E552E552D1
:104D9000E55204D00101422B000E43230D0E000109
:104DA000CE6FCF6BD06BD16B68EC18F000010D0E9D
:104DB000D41901E1D5510DE00D0EE66EE66A130E31
:104DC000E66EE66ADCEC30F0E552E552E552E5527B
:104DD00004D00101422B000E43230E0E0001CE6FC2
:104DE000CF6BD06BD16B68EC18F000010E0ED419AC
:104DF00001E1D5510DE00E0EE66EE66A130EE66E89
:104E0000E66ADCEC30F0E552E552E552E55204D0BA
:104E10000101422B000E43230F0E0001CE6FCF6B1A
:104E2000D06BD16B68EC18F000010F0ED41901E1C2
:104E3000D5510DE00F0EE66EE66A130EE66EE66AD9
:104E4000DCEC30F0E552E552E552E55204D00101C8
:104E5000422B000E4323100E0001CE6FCF6BD06BA0
:104E6000D16B68EC18F000010F0ED41901E1D55197
:104E70000DE00F0EE66EE66A130EE66EE66ADCECF7
:104E800030F0E552E552E552E55204D00101422BE3
:104E9000000E4323110E0001CE6FCF6BD06BD16B90
:104EA00068EC18F000010F0ED41901E1D5510DE0A6
:104EB0000F0EE66EE66A130EE66EE66ADCEC30F084
:104EC000E552E552E552E55204D00101422B000EB5
:104ED00043230001C66B400EC76F120ECE6FCF6B1F
:104EE000D06BD16B68EC18F00001780ED41901E199
:104EF000D5510DE0780EE66EE66A120EE66EE66AB1
:104F0000DCEC30F0E552E552E552E55204D0010107
:104F1000422B000E4323130E0001CE6FCF6BD06BDC
:104F2000D16B68EC18F00001780ED41901E1D5516D
:104F30000DE0780EE66EE66A120EE66EE66ADCECCE
:104F400030F0E552E552E552E55204D00101422B22
:104F5000000E43230001C6697F0EC76F140ECE6F8B
:104F6000CF6BD06BD16B68EC18F00001EF0ED41949
:104F700001E1D5510DE0EF0EE66EE66A120EE66E27
:104F8000E66ADCEC30F0E552E552E552E55204D039
:104F90000101422B000E4323150E0001CE6FCF6B93
:104FA000D06BD16B68EC18F00001EF0ED41901E161
:104FB000D5510DE0EF0EE66EE66A120EE66EE66A79
:104FC000DCEC30F0E552E552E552E5521200010109
:104FD000422B000E432312000001C06BC16BC26B59
:104FE000F00EC36FC46BC56BC66BC76BC86BC96B68
:104FF000CA6BCB6B050ECC6FCD6B090ECE6FCF6B32
:10500000D06BD16B68EC18F0F80E0001D41902E1F6
:10501000FF0ED5190DE0F80EE66EE668100EE66E8E
:10502000E66ADCEC30F0E552E552E552E55204D098
:105030000101422B000E4323080E0001CE6FCF6BFF
:10504000D06BD16B68EC18F0FA0E0001D41902E1B4
:10505000FF0ED5190DE0FA0EE66EE668100EE66E4C
:10506000E66ADCEC30F0E552E552E552E55204D058
:105070000101422B000E4323070E0001CE6FCF6BC0
:10508000D06BD16B68EC18F0FC0E0001D41902E172
:10509000FF0ED5190DE0FC0EE66EE668100EE66E0A
:1050A000E66ADCEC30F0E552E552E552E55204D018
:1050B0000101422B000E4323060E0001CE6FCF6B81
:1050C000D06BD16B68EC18F0FE0E0001D41902E130
:1050D000FF0ED5190DE0FE0EE66EE668100EE66EC8
:1050E000E66ADCEC30F0E552E552E552E55204D0D8
:1050F0000101422B000E4323050E0001CE6FCF6B42
:10510000D06BD16B68EC18F00001D451D5110DE0D3
:10511000000EE66EE66A100EE66EE66ADCEC30F033
:10512000E552E552E552E55204D00101422B000E52
:105130004323040E0001CE6FCF6BD06BD16B68ECB4
:1051400018F00001D451D5110DE0000EE66EE66AAC
:10515000100EE66EE66ADCEC30F0E552E552E55200
:10516000E55204D00101422B000E4323030E00013F
:10517000CE6FCF6BD06BD16B68EC18F00001D451BF
:10518000D5110DE0000EE66EE66A100EE66EE66AD8
:10519000DCEC30F0E552E552E552E55204D0010175
:1051A000422B000E4323020E0001CE6FCF6BD06B5B
:1051B000D16B68EC18F00001D451D5110DE0000E50
:1051C000E66EE66A100EE66EE66ADCEC30F0E5525A
:1051D000E552E552E55204D00101422B000E432373
:1051E000010E0001CE6FCF6BD06BD16B68EC18F065
:1051F0000001D451D5110DE0000EE66EE66A100EE6
:10520000E66EE66ADCEC30F0E552E552E552E55236
:1052100004D00101422B000E43230001CE6BCF6B63
:10522000D06BD16B68EC18F00001D451D5110DE0B2
:10523000000EE66EE66A100EE66EE66ADCEC30F012
:10524000E552E552E552E55204D00101422B000E31
:1052500043230001CE6BCF6B010ED06FD16B68EC96
:1052600018F00001D451D5110DE0000EE66EE66A8B
:10527000100EE66EE66ADCEC30F0E552E552E552DF
:10528000E55204D00101422B000E43230001CE6BF6
:10529000CF6B020ED06FD16B68EC18F00001D451C7
:1052A000D5110DE0000EE66EE66A100EE66EE66AB7
:1052B000DCEC30F0E552E552E552E55204D0010154
:1052C000422B000E43230001CE6BCF6B030ED06F39
:1052D000D16B68EC18F00001D451D5110DE0000E2F
:1052E000E66EE66A100EE66EE66ADCEC30F0E55239
:1052F000E552E552E55204D00101422B000E432352
:105300000001CE6BCF6B040ED06FD16B68EC18F040
:105310000001D451D5110DE0000EE66EE66A100EC4
:10532000E66EE66ADCEC30F0E552E552E552E55215
:1053300004D00101422B000E43230001CE6BCF6B42
:10534000050ED06FD16B68EC18F00001D451D51167
:105350000DE0000EE66EE66A100EE66EE66ADCEC24
:1053600030F0E552E552E552E55204D00101422BFE
:10537000000E43230001CE6BCF6B060ED06FD16BB6
:1053800068EC18F00001020ED41901E1D5510DE0CE
:10539000020EE66EE66A100EE66EE66ADCEC30F0AF
:1053A000E552E552E552E55204D00101422B000ED0
:1053B00043230001CE6BCF6B070ED06FD16B68EC2F
:1053C00018F00001040ED41901E1D5510DE0040ECE
:1053D000E66EE66A100EE66EE66ADCEC30F0E55248
:1053E000E552E552E55204D00101422B000E432361
:1053F0000001CE6BCF6B080ED06FD16B68EC18F04C
:105400000001060ED41901E1D5510DE0060EE66E3D
:10541000E66A100EE66EE66ADCEC30F0E552E55224
:10542000E552E55204D00101422B000E4323000156
:10543000CE6BCF6B090ED06FD16B68EC18F000010A
:10544000080ED41901E1D5510DE0080EE66EE66AAA
:10545000100EE66EE66ADCEC30F0E552E552E552FD
:10546000E55204D00101422B000E43230001C06B22
:10547000C16BC26BF00EC36FC46BC56BC66BC76BE1
:10548000C86BC96BCA6BCB6BCC69CD6B200ECE6F72
:10549000010ECF6FD06BD16B68EC18F0BE0E00011F
:1054A000D41902E1FF0ED5190DE0BE0EE66EE668D6
:1054B000100EE66EE66ADCEC30F0E552E552E5529D
:1054C000E55204D00101422B000E43230001100ECF
:1054D000CE6F010ECF6FD06BD16B68EC18F0DE0E83
:1054E0000001D41902E1FF0ED5190DE0DE0EE66EC3
:1054F000E668100EE66EE66ADCEC30F0E552E55246
:10550000E552E55204D00101422B000E4323000175
:10551000CE6B010ECF6FD06BD16B68EC18F0FE0E26
:105520000001D41902E1FF0ED5190DE0FE0EE66E62
:10553000E668100EE66EE66ADCEC30F0E552E55205
:10554000E552E55204D00101422B000E4323F00E38
:105550000001CE6FCF6BD06BD16B68EC18F00001FF
:10556000D451D5110DE0000EE66EE66A100EE66E1F
:10557000E66ADCEC30F0E552E552E552E55204D043
:105580000101422B000E4323E00E0001CE6FCF6BD2
:10559000D06BD16B68EC18F00001D451D5110DE03F
:1055A000000EE66EE66A100EE66EE66ADCEC30F09F
:1055B000E552E552E552E55204D00101422B000EBE
:1055C0004323200E0001CE6FCF6BD06BD16B68EC04
:1055D00018F00001D451D5110DE0000EE66EE66A18
:1055E000100EE66EE66ADCEC30F0E552E552E5526C
:1055F000E55204D00101422B000E4323100E00019E
:10560000CE6FCF6BD06BD16B68EC18F00001D4512A
:10561000D5110DE0000EE66EE66A100EE66EE66A43
:10562000DCEC30F0E552E552E552E55204D00101E0
:10563000422B000E43230001F00ECE6FCF69D06BDA
:10564000D16B68EC18F00001D451D5110DE0000EBB
:10565000E66EE66A100EE66EE66ADCEC30F0E552C5
:10566000E552E552E55204D00101422B000E4323DE
:105670000001E00ECE6FCF69D06BD16B68EC18F0F3
:105680000001D451D5110DE0000EE66EE66A100E51
:10569000E66EE66ADCEC30F0E552E552E552E552A2
:1056A00004D00101422B000E4323200E0001CE6FD7
:1056B000CF6BD06BD16B68EC18F00001D451D511D1
:1056C0000DE0000EE66EE66A100EE66EE66ADCECB1
:1056D00030F0E552E552E552E55204D00101422B8B
:1056E000000E4323100E0001CE6FCF6BD06BD16B39
:1056F00068EC18F00001D451D5110DE0000EE66EF3
:10570000E66A100EE66EE66ADCEC30F0E552E55231
:10571000E552E55204D00101422B000E4323000163
:10572000CE6BCF69D06BD16B68EC18F00001020E24
:10573000D41901E1D5510DE0020EE66EE66A100EB5
:10574000E66EE66ADCEC30F0E552E552E552E552F1
:1057500004D00101422B000E43230001F00ECE6F56
:10576000FE0ECF6FD06BD16B68EC18F00001220EEB
:10577000D41901E1D5510DE0220EE66EE66A100E55
:10578000E66EE66ADCEC30F0E552E552E552E552B1
:1057900004D00101422B000E43230001E00ECE6F26
:1057A000FE0ECF6FD06BD16B68EC18F00001420E8B
:1057B000D41901E1D5510DE0420EE66EE66A100EF5
:1057C000E66EE66ADCEC30F0E552E552E552E55271
:0C57D00012000101422B000E43231200C6
:0457DC00E66A26EC67
:1057E0003AF0E5520101416FE850090803E2010176
:1057F000458302D001014593020EE66E36EC3AF085
:10580000E552F3CF08F1F4CF09F1040EE66E36EC61
:105810003AF0E552F3CF04F1F4CF05F1060EE66E4F
:1058200036EC3AF0E552F3CF06F1F4CF07F1080E6B
:10583000E66E36EC3AF0E552F3CF00F1F4CF01F129
:105840000A0EE66E36EC3AF0E552F3CF02F1F4CFF1
:1058500003F11200D9CFE6FFE1CFD9FFE00E6E14BD
:10586000146EFE0EDB50145C04E0FE0EDB506F6E17
:10587000F5D7609E0F01509FE552E7CFD9FF120088
:10588000800EE66EE7DFE552400E706EEE0E716E32
:10589000850E726E776A0F01200E506F606E736E08
:1058A000A36A9394E66AD6DFE552120001014151E2
:1058B0000401006F016B050ED89000370137E80630
:1058C000FBE1200E040100150001EA6FEB6B800E76
:1058D000040100150001EC6F010E04010115000127
:1058E000ED6F000EEC27020EED230A0E04010025D9
:1058F0000001EE6F060E040101210001EF6FF00EB2
:10590000F06F070EF16FF269F36FE00E6E1480080E
:1059100003E0800E6F6EF9D7EAC014F0050ED89040
:105920001436E804FCE114C001FFEAC014F0EBC037
:1059300015F0030ED89015321432E804FBE114C0C0
:1059400000FFECC014F0050ED8901436E804FCE11A
:1059500014C005FFECC014F0EDC015F0030ED89094
:1059600015321432E804FBE114C004FFF0C014F057
:10597000050ED8901436E804FCE114C019FFF0C0FD
:1059800014F0F1C015F0030ED89015321432E8046B
:10599000FBE114C018FFEEC014F0050ED8901436C9
:1059A000E804FCE114C009FFEEC014F0050ED89025
:1059B0001436E804FCE114C00DFFEEC014F0050E2F
:1059C000D8901436E804FCE114C011FFEEC014F0C6
:1059D000050ED8901436E804FCE114C015FFEEC0A3
:1059E00014F0EFC015F0030ED89015321432E8040D
:1059F000FBE114C008FFEEC014F0EFC015F0030E79
:105A0000D89015321432E804FBE114C00CFFEEC04C
:105A100014F0EFC015F0030ED89015321432E804DC
:105A2000FBE114C010FFEEC014F0EFC015F0030E40
:105A3000D89015321432E804FBE114C014FFF2C010
:105A400014F0050ED8901436E804FCE114C01DFFD4
:105A5000F2C014F0F3C015F0030ED89015321432D2
:105A6000E804FBE114C01CFFE00E6E1402E06F6A54
:105A7000FBD71200B3DE04DF19DF0101040E1F6F34
:105A800012000F0150516010800B120064EC30F0D6
:105A90000F01409715C114F0050ED8901436E80494
:105AA000FCE114500F01426F15C114F016C115F03E
:105AB000030ED89015321432E804FBE114500F01A4
:105AC000416F1FC145FF17C146FF18C147FF19C1EC
:105AD00048FF1AC149FF1BC14AFF1CC14BFF1DC132
:105AE0004CFF1EC14DFF40870001E82B000EE9234B
:105AF000120060AE30D064EC30F0615001010A6FEA
:105B00000B6B030ED8900A370B37E806FBE16250A7
:105B1000E00BE838E840156AE85001010A13155017
:105B20000B1365CF14F1145110E066CF0CF167CF61
:105B30000DF168CF0EF169CF0FF16ACF10F16BCF85
:105B400011F16CCF12F16DCF13F1609E0001E62BC5
:105B5000000EE72312000F0150AF2FD064EC30F09D
:105B60000F01515101010A6F0B6B030ED8900A37D8
:105B70000B37E806FBE10F015251E00BE838E84033
:105B8000156AE85001010A1315500B1355CF14F193
:105B900056CF0CF157CF0DF158CF0EF159CF0FF171
:105BA0005ACF10F15BCF11F15CCF12F15DCF13F141
:105BB0000F01509F0001E62BE72312000001F42B98
:105BC000000EF5230F0ED880F455000EF55502E2B5
:105BD000F46BF56B0F0EF41901E1F55101E193D06F
:105BE0000E0EF41901E1F55101E183D00D0EF41907
:105BF00001E1F55101E178D00C0EF41901E1F55104
:105C00006EE00B0EF41901E1F55164E00A0EF4198F
:105C100001E1F5515AE0090EF41901E1F55150E0A6
:105C2000080EF41901E1F55146E0070EF41901E1FF
:105C3000F5513CE0060EF41901E1F55132E0050E94
:105C4000F41901E1F55128E0040EF41901E1F551D0
:105C50001EE0030EF41901E1F55117E0020EF419EC
:105C600001E1F5510EE0010EF41901E1F55107E0F3
:105C7000F45101E1F55101E01200F66B42D0CE0E75
:105C800001D0D20EF66F060E41D0010E39D004C1FC
:105C9000F6F005C1F7F0120006C1F6F007C1F7F003
:105CA000120008C1F6F009C1F7F0120000C1F6F0C9
:105CB00001C1F7F0120002C1F6F003C1F7F01200C3
:105CC000C0C0F6F0C1C0F7F01200C2C0F6F0C3C009
:105CD000F7F01200C4C0F6F0C5C0F7F01200C8C05B
:105CE000F6F0C9C0F7F01200C6C0F6F0C7C0F7F072
:105CF00012000001CD51000EF3500001CC11000143
:105D0000F66FF76B1200880EF66F130EF76F120026
:105D10000F0E01010A1504010E6F0F014097E850A4
:105D20000F0A01E19ED0010A01E192D0030A01E1CC
:105D300086D0010A01E17AD0070A6FE0010A64E027
:105D4000030A59E0010A4EE00F0A43E0010A38E075
:105D5000030A2DE0010A22E0070A17E0010A0CE01D
:105D6000030A01E086D059C146FF5AC147FF55C119
:105D700048FF56C149FF7DD059C146FF5AC147FF70
:105D800057C148FF58C149FF74D059C146FF5AC195
:105D900047FFFAC048FFFBC049FF6BD059C146FF1F
:105DA0005AC147FF44C148FF45C149FF62D059C1AC
:105DB00046FF5AC147FF49C148FF4AC149FF59D070
:105DC00059C146FF5AC147FF4BC148FF4CC149FF6B
:105DD00050D059C146FF5AC147FF47C148FF48C18B
:105DE00049FF47D059C146FF5AC147FFE6C048FFA7
:105DF000E7C049FF3ED059C146FF5AC147FFE8C03E
:105E000048FFE9C049FF35D0F4C046FFF5C047FF61
:105E1000F6C048FFF7C049FF2CD081C146FF82C1C0
:105E200047FF83C148FF84C149FF23D059C146FFC2
:105E30005AC147FF76CF48FF75CF49FF1AD059C1E5
:105E400046FF5AC147FFE0C048FFE1C049FF11D0FB
:105E500059C146FF5AC147FFE2C048FFE3C049FFAE
:105E600008D059C146FF5AC147FFE4C048FFE5C00A
:105E700049FF040E456F01014151040DF3CF41FF6D
:105E80000F01426B418F61B0418162CF42FF00013F
:105E9000E82B000EE9230F0140870A0E04010E5D76
:105EA00001E18CDE1200D9CFE6FFE1CFD9FF040E6D
:105EB000E1260F0E01010A15DF6E030E01014115E7
:105EC000E76E010EE7CFDBFF010EEA6ADB34FE0B63
:105ED000EA36E96E0C0EE926010EEA22020EEECF3A
:105EE000DBFF030EEDCFDBFFDF50030A1EE0010AEC
:105EF00011E0030A04E0010A01E049D056D0020E85
:105F0000DBCFE6FF030EDBCFE6FF69EC30F0E552B6
:105F1000E5524BD0020EDBCFE6FF030EDBCFE6FFF0
:105F20007DEC30F0E552E55240D0020EDBCF14F0AC
:105F3000030EDBCF15F0000E1416FF0E15161450CD
:105F400002E1520E151822E1FF0EE76E020EDBCFC2
:105F500016F0030EDBCF17F0E7501616176A010193
:105F60004151186E196A1850161802E11950171885
:105F70000DE1000EE66EE66A40EC3DF0E552E552BA
:105F8000640EE66EABEC3DF0E552FF000ED0020E63
